:020000040800F2
:1000000000180020F13A00084D06000869060008B3
:1000100000000000000000000000000000000000E0
:10002000000000000000000000000000850600083D
:100030000000000000000000870600088906000894
:10004000713B0008713B0008713B0008713B0008E0
:10005000713B0008713B0008713B0008713B0008D0
:10006000713B0008713B0008713B0008713B0008C0
:10007000713B0008713B0008713B0008713B0008B0
:10008000713B00080000000000000000713B000808
:1000900000000000713B0008713B0008713B000844
:1000A00000000000713B0008713B0008713B000834
:1000B000713B000800000000713B00089106000839
:1000C00010B5064C2378002B07D1054B002B02D02E
:1000D000044800E000BF0123237010BD1000002081
:1000E00000000000E03B0008044B10B5002B03D0DB
:1000F0000349044800E000BF10BDC04600000000F6
:1001000014000020E03B000802B471464908490091
:10011000095C49008E4402BC7047C04603B4714676
:10012000490840004900095A49008E4403BC704701
:10013000002243088B4274D303098B425FD3030A26
:100140008B4244D3030B8B4228D3030C8B420DD339
:10015000FF22090212BA030C8B4202D312120902C7
:1001600065D0030B8B4219D300E0090AC30B8B4205
:1001700001D3CB03C01A5241830B8B4201D38B03B3
:10018000C01A5241430B8B4201D34B03C01A524158
:10019000030B8B4201D30B03C01A5241C30A8B429B
:1001A00001D3CB02C01A5241830A8B4201D38B0286
:1001B000C01A5241430A8B4201D34B02C01A52412A
:1001C000030A8B4201D30B02C01A5241CDD2C3099C
:1001D0008B4201D3CB01C01A524183098B4201D318
:1001E0008B01C01A524143098B4201D34B01C01A03
:1001F000524103098B4201D30B01C01A5241C3087B
:100200008B4201D3CB00C01A524183088B4201D3E9
:100210008B00C01A524143088B4201D34B00C01AD5
:100220005241411A00D20146524110467047FFE741
:1002300001B5002000F006F802BDC0460029F7D045
:1002400076E770477047C046BFF34F8F034B044AB1
:10025000DA60BFF34F8FC046FDE7C04600ED00E017
:100260000400FA05054B834205D10A68044B1A6065
:100270000022044B1A6000207047C046BC000020DA
:1002800000010020FC000020012210B5054C064BA7
:10029000064920001A6003F0F6FB200003F00FFC73
:1002A00010BDC0468C010020B8000020BC0000201A
:1002B00010B598B0302200210CA803F088FC102261
:1002C000002101A803F083FC1822002105A803F0F7
:1002D0007EFC012420230BA80B93139401F010FF44
:1002E000002801D0FFF7B0FF07230193043B0293DE
:1002F00004907D33210001A8039302F089F90028BE
:10030000F0D180230A909B0205A8059302F01AFA07
:100310000028E7D118B010BDF0B58BB002F0CEFACE
:10032000FFF7C6FF1422002105A803F050FC80202F
:10033000B44B8002596900240143596180215A69F4
:10034000C902024090200392039A5A69C0050A43E9
:100350005A615B6900220B4004930221049B02F066
:100360007FFB00224021A84802F07AFB0022802176
:10037000A54802F075FB022390200125059305A9ED
:100380000F33C00506930894079502F0B9FA40238D
:1003900080269D4805A9059307940894069502F0C8
:1003A000AFFA994805A9079408940596069502F0B6
:1003B000A7FA962395489B01436080235B018360E5
:1003C0008023DB0003610C23914FC4608461C4610E
:1003D000046244620760436102F0ECFD041E01D038
:1003E000FFF732FF3B682B433B608A4B186000F0FD
:1003F000BDF9894B2A001C60884B40211C60884B4A
:1004000081481C60874B1C6002F02AFB2A003100E7
:100410007D4802F025FB844B1B6864330193824BBB
:100420001B68643300932022FB6913422FD07A4B60
:10043000BA8C1B6878487D4D591C0160EA548021B4
:100440000122714802F00CFB774B1A6811006431ED
:100450000091643201D1012200926F4E3468402C29
:1004600066D16C4A1268002A62D0290022007048C6
:1004700003F0A4FB6F4D22006D49280003F0FCFA45
:10048000280003F006FB0023644A33601360624DCA
:100490002C68002C1ED0614A116800291AD0624BCA
:1004A0001B685B1A16D45B4B1B68002B12D0002311
:1004B0005F4E13605D492200300003F07FFBA2B263
:1004C0005C4C3100200003F0D7FA200003F0E1FA81
:1004D00000232B60FB691B0660D5524D2B68002B57
:1004E0005CD04F4A1268934258D9012240214648B5
:1004F00002F0B6FA4C4B1B681A0064320192643366
:1005000001D1012301934C4B1B68002B1BD002F03F
:100510001BFB8020000502F05FFB484802F032FB25
:1005200002F026FB00224021374802F099FA57E7F3
:100530001A683A4B11001431143201D01960A6E741
:1005400001221A60A3E7384B90201E68FA2301228B
:100550009B000221C005F61802F082FA4021304CBF
:1005600023685A1C2260364AD35C2F4A3B85FB69BC
:100570000B4202D113689B1BF9D490200022022168
:10058000C00502F06DFA22682B689A4202D1294810
:1005900003F095FA009B002B03D111E0009B002B88
:1005A0000BD0214B009A1B689B1A06D40022802195
:1005B000154802F055FA00230093019B002B0BD045
:1005C000194B019A1B689B1A06D4002240210E4841
:1005D00002F046FA002301930823FA691A4200D078
:1005E0003B620423FA691A4200D03B620223FA6993
:1005F0001A4200D03B620123FA691A4200D112E785
:100600003B6210E700100240000400482C0000206C
:1006100000440040B8000020880100208401002030
:10062000FC000020000100208C08002004010020B4
:10063000440100208C010020B400002050C30000C1
:10064000BC00002010B5FFF7FFFD0000BFF34F8F87
:10065000034B044ADA60BFF34F8FC046FDE7C04644
:1006600000ED00E00400FA05BFF34F8F034B044A8E
:10067000DA60BFF34F8FC046FDE7C04600ED00E0F3
:100680000400FA057047704710B502F027F910BD55
:1006900010B5024800F050FF10BDC04650050020C4
:1006A00001200A4B82B099690143996180219A69BE
:1006B000490502400092009ADA690A43DA61DB696F
:1006C0000B400193019B02B07047C04600100240EE
:1006D00010B504008AB01422002105A803F077FAAF
:1006E00023681F4A934223D180201E4BC001996981
:1006F0000143996180219A69890202400192019A1D
:100700005A690A435A615B690B400293029BC023FA
:10071000DB000593122390200322069305A9113BC9
:10072000C00507930892099302F0EAF80AB010BDD9
:100730000D4A9342FAD180220A4B9202D9691143A1
:10074000D961D969114003910399596911435961DC
:100750005B691A400492049B0C2305930633DAE785
:1007600000380140001002400044004010B5114C18
:1007700000222000104902F050FC002801D0FFF7B1
:1007800061FF20000D4902F062FC002801D0FFF754
:1007900059FF20000A4903F066F9002801D0FFF74D
:1007A00051FF200002F05CFC002801D0FFF74AFF57
:1007B00010BDC0468C0100202C3C0008B03C000855
:1007C000603C0008122301480B807047483C000839
:1007D000042301480B8070475C3C000830B50025BD
:1007E00052008A18040FE3B2092C07D830330B707B
:1007F0004D70023100018A42F4D130BD3733F6E743
:100800001A23082270B50C4C0A802370173B6370C2
:100810000A4B18680A4B1B68C018002809D0094BFE
:1008200009491D68FFF7DAFF042228000749FFF78E
:10083000D5FF200070BDC04650040020ACF7FF1F5C
:10084000B4F7FF1FB0F7FF1F52040020620400201E
:1008500010B5044C0A002100034802F061FF20009B
:1008600010BDC04650040020F83B000810B5044CF1
:100870000A002100034802F053FF200010BDC046CB
:10088000500400200A3C000810B5044C0A00210066
:10089000034802F045FF200010BDC0465004002070
:1008A000103C000810B5044C0A002100034802F077
:1008B00037FF200010BDC046500400201B3C00083C
:1008C0000020704710B50024024B1C60FFF7DCFCD1
:1008D000200010BDB4000020202811D1032A0FD918
:1008E00048780B788A7800021843CB7812041043BA
:1008F0001B06044A03439B185A425341024A1360A1
:1009000000207047007CFCFFB400002003000220A0
:10091000032B01D8014AD05C7047C046703C0008E8
:1009200007B50B4B02689A4211D18020094A000496
:10093000D1690143D161D3690022034001931F2093
:100940001100019B02F092F81F2002F0B9F807BDD8
:10095000005C004000100240A62310B59B00C118A7
:100960004033C05802F096FB10BD28234B43C318F8
:10097000FC339A6EB62310B59B00C05802F0BCFB46
:1009800010BD28234B43C3185A6AB62310B59B00E9
:10099000C05802F0F7FB10BDB62310B59B00C0583D
:1009A00002F09AFC10BD70B543790400022B01D00F
:1009B000FFF748FEB625AD000121605902F071FC39
:1009C000605902F044FC70BDB62310B504009B00D2
:1009D000C05802F069FC637A002B04D00623024A57
:1009E00011690B43136110BD00ED00E010B5437AAF
:1009F0000400002B06D00621054A13698B431361BE
:100A0000FFF756FCB6239B00E05802F059FC10BDDE
:100A100000ED00E0B62370B504001C489B00C450F4
:100A20001B4BB025036082239B0083800223C3718C
:100A30000023AD0060514381437200F00DFD00289A
:100A400001D0FFF7FFFD002260591100182301F0CB
:100A500029FB605958230022802101F023FB6059B3
:100A6000C0230022812101F01DFB88236059002250
:100A700001215B0001F016FB8023605900228221D6
:100A80005B0001F00FFB002070BDC0465005002048
:100A9000005C0040B02310B59B00C05800F028FD5A
:100AA000FFF734FF10BD10B514001A002300B02466
:100AB000A400005901F00CFAFFF728FF10BDB02385
:100AC00010B59B00C05801F030FAFFF71FFF10BDB2
:100AD000B02310B59B00C05801F089FAFFF716FF4C
:100AE00010BDB02310B59B00C05801F0AEFAFFF75F
:100AF0000DFF10BDB0239B00C35848B22822002828
:100B000005DA7F20014051435B18987C70475143C0
:100B10005B185333FF331878F8E7B02310B59B0008
:100B2000C05800F0F8FCFFF7F1FE10BD10B5B0247E
:100B3000A400005901F042FAFFF7E8FE10BD10B51D
:100B4000B024A400005901F015FAFFF7DFFE10BD34
:100B5000B02310B59B00C05801F028FA10BD00006A
:100B6000004870472C08002070470000821D0300D9
:100B70000020D087014A0233DA87704780BFFFFF29
:100B80000230C38F024A1340C38700207047C0461B
:100B90007F400000821C030001210020D18782B029
:100BA000D0879A1D5033D087188002B0704700005C
:100BB000F7B50E787D4AB300C3181C88CF7814406F
:100BC000012205000092032F08D83800FFF79CFA95
:100BD000023D3A378022920014430097744A14432E
:100BE000A4B21C801888734C20403043104380B25C
:100BF0001880F0008446087BAC44503501950028ED
:100C000000D071E0CD8848786D086D00002824D0B0
:100C100080200199C0000988614409180D80198855
:100C2000490604D519880C4063490C431C80634C69
:100C30001988012F0BD00C402021614008E0C02210
:100C4000D200144300220092C8E78022F8E7214036
:100C50000A4392B200981A80FEBD0198096907887C
:100C6000574867443F1801983D80058855486544BA
:100C70002D182F88BF05BF0D2F80002914D1802784
:100C800029883F02394329801988490404D51988E5
:100C90000C404D490C431C804C4D002E1ED1C021F0
:100CA0001C8889012C40C8E73E2908D801204F083C
:100CB00001407F182988BF02394389B2E3E71F202A
:100CC0004F0901400800414241417F1A2988BF0273
:100CD00039433F4F0F43BFB22F80D5E719880D40EE
:100CE000802189016940B3E71D88022F3AD1394E2E
:100CF0002540354301981D80058880200E89654474
:100D0000C00076082D18760001982E8005884E893F
:100D10002B48654476082D1876002E804978274E9A
:100D20008C4680216046294DC90100281FD11F88AB
:100D30000F4204D01988244F214039431980198863
:100D4000490604D519880C401B490C431C8019889E
:100D50002940C025AD014D401543ADB21D80198815
:100D6000314075E71C4E35401543ADB2C2E71888D7
:100D7000084204D019881448214001431980198879
:100D8000490604D519880C400B490C431C8019886E
:100D9000012F09D00E4020217140114389B21980E2
:100DA00019880D402A4354E73140F6E78F89FFFF49
:100DB0008080FFFF8F8FFFFFC0800000BF8FFFFF8D
:100DC000040400000604000080C000008FBFFFFF85
:100DD0000080FFFF808100008F8EFFFFF0B50B7851
:100DE0000A7B9B00C0184D78324B002A1DD1028827
:100DF000002D0FD0520605D502882F490A402F49F1
:100E00000A43028002882E490A4013439BB20380A2
:100E10000020F0BD520405D5028827490A4029491F
:100E20000A43028002882849EEE78021224A244EA4
:100E3000254CC901002D1DD105880D4204D0018823
:100E4000204D1140294301800188204D490604D5D9
:100E500001881140294389B2018001880A40154365
:100E6000ADB20580028814401C43A4B204800288FD
:100E70003240CAE70788164D0F4204D0018811405E
:100E8000294389B201800188490604D501880B4FA6
:100E900011403943018001880A401543ADB20580F5
:100EA000028832401A4392B20280028814402343DF
:100EB000ACE7C0468080FFFF8F8FFFFFC08000003F
:100EC000BF8FFFFF80C000008FBFFFFFC080FFFF0C
:100ED00080C0FFFF0B780B4A9B00C0184B78002B9B
:100EE00009D003880849194010234B4013439BB293
:100EF00003800020704703880449194080235B0168
:100F0000F3E7C0468080FFFFBF8FFFFF8FBFFFFF6B
:100F10000B7B002B19D10B789B00C0184B78002B52
:100F200015D003885B0605D50388104A1340104A84
:100F300013430380CB78012B07D003880D4A1A4056
:100F4000202353400C4A134303800020704703883A
:100F50005B0405D50388054A1340084A1343038000
:100F60000388074A1A40C0239B01EAE78F8FFFFFDF
:100F7000C0800000BF8FFFFF8080000080C00000A5
:100F80008FBFFFFF002902D180234C300380002057
:100F900070478022583003881202134303800020D8
:100FA00070470630C08F80B2704730B5802401335F
:100FB000E40012195B0880185B00CB18401A441833
:100FC0008B4200D130BD4A780D7812022A4322802C
:100FD0000231F4E7F0B50C0049780500227B85B0BA
:100FE000012900D016E12069A669864200D90600D1
:100FF0002F00636950370193002A1DD1B6B2330028
:10100000E28801992800FFF7D0FFB94A3988237890
:10101000AA18DB0052189B181E802078B54A800061
:101020002D182B881A4030235340B34A13439BB2E8
:1010300000202B8005B0F0BD2278236AD1000291F8
:10104000E1789200022900D0CDE0AA18984200D39E
:10105000B8E01188A9489B1B0840A94908431080A3
:10106000108840220100114023620391B3B2104264
:1010700055D0A44A38880299AA1812185218138019
:10108000280062890199FFF790FF6369226A20694D
:10109000991961610023824201D9931B3200607863
:1010A000236293B200282FD191483F8826782818D0
:1010B000F600C01930180688B605B60D0680002A5D
:1010C00009D1802602883602324302802289280014
:1010D000FFF76BFFA1E73E2A08D8012756083A40E0
:1010E000B6180288B602324392B2EEE71F275609BD
:1010F0003A4057427A41B61A0288B6023243824ECB
:101100001643B6B20680E1E70128DFD178483E8871
:1011100022782818D200801912181380D6E7744A52
:1011200038880299AA1812185218138028002289A8
:101130000199FFF73AFF6369226A20699919616191
:10114000039B824201D9931B32006078236293B2E1
:1011500000282CD16B483F8826782818F600C01943
:1011600030180688B605B60D0680002A06D18026FE
:1011700002883602324302806289A8E73E2A08D8F4
:10118000012756083A40B6180288B602324392B296
:10119000F1E71F2756093A4057427A41B61A0288AA
:1011A000B6023243584E1643B6B20680E4E7012831
:1011B000E2D154483E8822782818D20080191218AB
:1011C0001380D9E71088514E4B493040084380B214
:1011D0001080474A38880299AA18121852189BB2F0
:1011E000138022890EE0AA189B1B1288236238887C
:1011F000B3B2520608D5434A0299AA1812185218D7
:1012000013806289019962E7394A0299AA18121873
:101210005218E5E7002A22D1A36921698B4201D93E
:101220005A1A0B00A2612A0050321088354A2178E0
:10123000AA18C90012188A1811888905890D118009
:10124000002B00D1CDE03E2B00D9D0E00120590881
:101250000340C918138889020B439BB2C5E0E378A9
:10126000022B00D083E0002957D10600204A5036D7
:10127000318823788218DB0052189A1813889B054E
:101280009B0D13802369002B1CD180201188000244
:10129000014311801B4A30882178AA18C90012180E
:1012A0008A1811888905890D1180002B30D03E2BBA
:1012B00052D8012059080340C918138889020B43EA
:1012C0009BB229E03E2B08D801215808194040184C
:1012D00011888002014389B2DBE71F271F40794252
:1012E0004F4158091188C01B800208430649F1E7A5
:1012F00002040000BF8FFFFF8080FFFF8F8FFFFF82
:1013000080810000060400000080FFFF8F8EFFFF39
:101310008021138809020B431380E369002B0FD04F
:10132000237838499B00EB181A880A408A4201D07A
:10133000002A05D11A8834490A4034490A431A80E0
:101340002078334A80002D182B881A40C0239B0137
:101350005340304A13436BE61F205909034058425B
:101360004341C91A1388890219432B4BA7E701206F
:10137000834200D05EE6A36922690020934201D92E
:10138000981A1300A0610029DAD12E00234A5036A2
:1013900030882178AA18C90012188A18118889057E
:1013A000890D1180002B06D1802011880002014395
:1013B000118030883AE73E2B08D80121580819409F
:1013C000401811888002014389B2F1E71F211940BA
:1013D0004F4279415809401A1188800208430E494A
:1013E000F1E78021138809020B431380A8E71F202F
:1013F0005909034058424341C91A138889021943C5
:10140000054B29E7404000008F8FFFFFC0800000A0
:101410008FBFFFFF808000000080FFFF02040000FC
:10142000F0B580255C08ED00521926000D008018EB
:10143000471A7A19002E07D1640000190919DB0731
:1014400001D503880B70F0BD1288013E92B22A705C
:10145000120A6A700235ECE770B504000125002815
:101460002DD0224D435DDAB2002B04D1A4239B0082
:10147000C254FFF755FA032363552068FFF780FB3A
:10148000002322001900012620791032984218D139
:101490000021220008005132FF328B421BD1A2688A
:1014A00061682068FFF776FB0023012223736255F1
:1014B000A27A1D00012A02D1200000F00BFE2800B4
:1014C00070BD137001335670D1701161516191611B
:1014D000DBB22832DAE7117001315070D070106140
:1014E00050619061C9B22832D7E7C046910200002E
:1014F00070B5A425AD00435D04000220012B09D086
:10150000012363552068FFF731FB2068FFF741FD99
:101510000020605570BD70B5A425AD00435D04008A
:101520000220012B07D00123635520682173FFF7A8
:1015300029FD0020605570BDF0B5040085B000683D
:10154000FFF72FFD802305001B021D40184201D12B
:1015500000F00DFC2068821DD38F1BB2002B01DB35
:1015600005B0F0BD0F21D38F194000910F219AB221
:101570000B4200D0C1E01023110019401A4227D1BC
:101580000388B64A134080221202134303800300EB
:1015900050331A88237CDB00C3189B18B04A200004
:1015A0009B181B88626A9B059B0DE362D3186362DC
:1015B000FFF7E7F9237B002BCCD0A16A0029C9D122
:1015C0008023227B1A4323684C331A802173C1E79E
:1015D000028880211600090193B20E400A4222D0EF
:1015E000030050331988A8235B00E35C9D4ADB00AD
:1015F000C3185B189B182200A6211B8851329B053B
:101600009B0DFF328900D3616118D288FFF708FF74
:1016100022689549138820000B4080210B431380DA
:10162000FFF79AF996E71BB2002B00DB92E70388DD
:101630008D4A25001340802213430380030050335A
:101640001988A8235B00E35C864ADB00C3185B189B
:101650009B181B8851359B059B0DFF35EB61002BBB
:101660000DD0696900290AD0EA88FFF7D9FE6B69B5
:10167000EA6931009B1820006B61FFF776F9216859
:101680000A8893B2120500D564E7C0229201134084
:10169000934200D15EE70B00724A50331B888A18D0
:1016A000D21813889B059B0D13802B69002B0ED13C
:1016B000802013880002034313800B886B4A1A4072
:1016C000C0239B0153406A4A13430B8042E73E2BE1
:1016D00008D8012558082B40C018138880020343FE
:1016E0009BB2E9E71F2558092B405D426B41C01AA8
:1016F0001388800218435F4BF1E7009B9F00C219DB
:10170000138899B21BB20191002B00DBEDE0138826
:1017100055490B4080210B4313802823009A5343E3
:10172000E3181A001D005D32FF3212785135FF3583
:10173000002A19D10200503211882A78D20052189A
:1017400048491218521812889205950D002A00D1A6
:10175000B1E01A005732FC331900FF322B00128817
:10176000896EFFF75DFEA6E019005431FF3109785C
:101770002A78022900D083E08026F601B446654627
:10178000019EFC332E4003960600503602966646B4
:10179000019DD96E354230D0029D2E88D500761934
:1017A0002F4D361876193588AD05AD0D8D420DD902
:1017B0000021D966910041180B882C4E1E408023D1
:1017C0009B0173402A4E33430B8002E0491BD966CC
:1017D000F0D0019B5B0607D592008218138826493A
:1017E0000B4026490B431380002D64D02823009A18
:1017F0005343E3181A005932ADE7029D2E88D500F5
:101800007619184D361876193588AD05AD0D8D420F
:101810000DD90399D966910041180B88134E1E40CB
:1018200080239B017340124E33430B8002E0491B1F
:10183000D966F0D0019B5B0607D49200821813880A
:101840000D490B400D490B431380002D33D0282345
:10185000009A5343E3181A005B327CE70F8FFFFFB7
:1018600002040000060400008F0F00008FBFFFFF7E
:10187000808000000080FFFF8F8FFFFFC08000008E
:10188000920082181688CB493140CB4E31431180EB
:101890002A78910041180D88010050310988D20042
:1018A000521812186D0459D5C4495218128892055D
:1018B000950D002A9ED12823009959436218FC32C5
:1018C000106F40191067906E40199066D06E002816
:1018D00002D0526E954249D2009A20005343E31839
:1018E0005133FF331978FFF740F88022019B1342F0
:1018F00000D12FE62068B249C21913880B40B149C4
:101900000B4328219BB21380009A4A43A318DD7C25
:10191000012D5ED1009A0132514300220A51197FF4
:10192000914236D04021019D019E0D400E4239D09A
:10193000597C914221D102001B7C503212889F4970
:10194000DB0040188018181803889E4A9B059B0DE1
:101950000380038813439BB203801AE09A4952180C
:1019600012889205950D002AA5D074E75131FF31F8
:1019700020686118FFF72EFBB7E7012909D10100A4
:101980008E4D503109881B7C4019DB0040181B1814
:101990001A802823009A5343E318197C2000FEF78D
:1019A000F0FFD7E55A7C002A06D102001B7C50329A
:1019B00012888549DB00C4E7012AEAD10200824986
:1019C000503212881B7C4018DB0080181B181D80C9
:1019D000DFE78026197C019F0291C9008C4601999E
:1019E00076009D6A374031421BD10600503636885A
:1019F00072498619664476183688B605B60DAE4229
:101A000002D302999F62C9E7596AAD1B89195962CD
:101A1000D96A10328E199D62DE62A118FFF7DAFAD8
:101A200098E502004027019E0199503212883E40FD
:101A3000394200D1D5E0614946186146B218575A7B
:101A40000022BF05BF0DAF4200D2EA1B80250199DD
:101A5000ED0129400D009A62002A46D12823009901
:101A60004B43E3185B7C002B30D1030050331A88C2
:101A70005449B618664432889205920D32803288F5
:101A80000A4392B23280504A1B888018C0186044C2
:101A900003889B059B0D038003880B439BB2038047
:101AA00020000299FEF76DFF002D00D1D4E028231D
:101AB000009A40495343E3181A7C236892009A180D
:101AC00013880B4041490B431380C5E0012BE7D13C
:101AD000070050373B883C49F31863441A803B8821
:101AE0004018C01860440280DAE7002908D0029A42
:101AF000910041180D882F4A2A40344D2A430A800C
:101B00002825009A554365192A003432019212782B
:101B1000012A00D0A0E06A6AD1196962DA6AD21992
:101B2000DA622B6B2A6A934221D39B1A2B632823F8
:101B3000009D6B43E3185D7C93B2002D48D10500F6
:101B400050352D88761966443588AD05AD0D358044
:101B5000002A18D132881B4D2A4392B232802822A3
:101B6000009D6A43A218128BFFF71FFA74E0002B46
:101B700003D1019A13703A00D9E70022019F3A700D
:101B80002A631A00D3E73E2A09D8012755083A40AC
:101B9000AD183288AD021543ADB23580DFE71F279F
:101BA00055093A4057427A41AD1A3288AD02154381
:101BB000044AF0E78F8FFFFFC0800000020400009E
:101BC0000F8FFFFF0080FFFF0604000080C00000B1
:101BD000012DC4D1020050321288B61866443380F9
:101BE000BDE7AD4947186146BA18525A9205920DA1
:101BF000AA4200D8AE1A80250199ED0129400D00B6
:101C00009E62002E48D12823009A5343E3185B7C40
:101C1000002B32D10300A14950331A884018801894
:101C2000604402889E499205920D028002880A4310
:101C300092B202801B88FB1863441A889205920DA9
:101C40001A801A880A4392B21A8020000299FEF77D
:101C500098FE002D00D12AE72823009A914953438A
:101C6000E3181A7C236892009A18138819403023CD
:101C70004B408D490B4313806CE4012BE5D10300ED
:101C8000864950331A8840188018604406801B88A3
:101C9000FB1863441E80D8E7002908D10299834DC0
:101CA000890041180E883540814E35430D80282625
:101CB00000994E43A6193100343101910978012968
:101CC000CAD1716A89187162DD6AAD18DD62336B41
:101CD000356AAB421FD35B1B33632823009A5343FF
:101CE000E3185A7CABB2002A38D102005032128875
:101CF000BA1862441688B605B60D1680002D16D1A6
:101D00001588674E3543ADB215802822009D6A4381
:101D1000A218528B28E7002B03D1019D2B701500D0
:101D2000DBE70022019D32632A701D00D5E73E2DBE
:101D300009D801276E083D4076191588B6022E4352
:101D4000B6B21680E1E71F276E093D406F427D4124
:101D5000761B1588B6022E43514DF0E7012AD4D1E7
:101D6000020050321288BA1862441380CDE743054E
:101D70000ED523684F490633DA8F20000A40DA87F0
:101D8000FEF711FE29002000FFF7C5FBFFF7E8FB77
:101D9000430407D5236848490633DA8F0A40DA87B7
:101DA000FFF7DEFB802301009B011940184204D09D
:101DB000236842490633DA8FF0E7C3041AD50420BA
:101DC00023680233DA8F8243DA87DA8F001882437E
:101DD000DA87B2239B00E25C012A03D12000E154A0
:101DE00000F08CF92000FEF701FE23683449063329
:101DF000DA8FD3E7030513D5082123689A1CD08F07
:101E000006330143D187D98F2E480140D987042357
:101E1000D18F0B43D3872000FEF7D6FDFFF7A0FB41
:101E20008025284221D0B22023688000991DCA8FC6
:101E3000AA43CA87225C002AEDD104219A1CD58FBF
:101E400054332943D1870821D58F2943D1870121D4
:101E50003C2221541B8820009B081340B32292008F
:101E6000A35000F04BF9FFF77BFB83050AD52368ED
:101E700015490633DA8F20000A40DA87FEF78CFD19
:101E8000FFF76EFBC30501D4FFF76AFB23680F4918
:101E90000633DA8F82E7C046060400000204000021
:101EA0000080FFFFBF8FFFFF808000008F8FFFFF4C
:101EB00080C00000FFFBFFFFFFBFFFFFFFDFFFFF52
:101EC000FFEFFFFFFFF7FFFFFFFDFFFFFFFEFFFF3D
:101ED00070B50500072028240840444349B22E1954
:101EE000002919DA2100012410316918747408706E
:101EF0000A61CB70022B01D100230B71A424A40032
:101F00002B5D0220012B06D001232B552868FEF7FC
:101F10004FFE0020285570BD21000024513152365B
:101F2000FF31FF3669183470E1E7072228230A40A1
:101F3000534349B270B50400C018002912DA1033B7
:101F4000E11801234374A4250A70AD00635D0220EB
:101F5000012B06D0012363552068FEF73FFF0020C8
:101F6000605570BD5133FF33E11800235230FF300C
:101F70000370E8E7F8B50724214021344C430619E3
:101F80003700FC37FB663300002552335136FF33F0
:101F9000FF363D67BA661D70317021005131FF3147
:101FA00041180068FFF716F82800F8BD07230B401A
:101FB000282159434018FC30006F704770B5072442
:101FC000214021344C430619350072620122343518
:101FD000B3622A703174210000251031F562336339
:101FE000727441180068FEF7F5FF280070BD0722E3
:101FF00070B5037904000A400120934219D348B216
:102000002823002816DA5343190001201031E31861
:10201000611858740123A4258B700A70AD00625DAD
:1020200002209A4205D063552068FEF753FF002036
:10203000605570BD4B4319000020E31851315233F5
:10204000FF31FF3361181870E4E70F2370B5027990
:1020500004000B4001209A421BD3072228230A4088
:10206000534349B2E018002914DA1033E118012370
:1020700043740025A4268D700A70B600A35D02206B
:10208000012B06D00123A3552068FEF741FF28004D
:10209000A55570BD5133FF33E11800235230FF3096
:1020A0000370E6E730B528240D060BD50725294037
:1020B0004C431034041999B2002A07D12273E180ED
:1020C000002030BD4C435134FF34F3E70122A360BC
:1020D0002273F5E703680200B420012110B58000E7
:1020E000B22411500020A400105554331A88114313
:1020F0000222198019880A431A8010BD7047000017
:10210000F0B5040085B000284ED00368DB0733D457
:1021100023689B0700D58AE023681B0700D5CAE027
:1021200023685B0700D5EDE02368DB061AD56269FA
:102130000423BC4D012A00D058E1696B02270B43F0
:102140006B636B6B1A436A6300F0D4FB06006B6B26
:102150003B4200D143E1F8216A6BA3698A43DB006B
:1021600013436B6323689B0600D567E1636A002B0A
:1021700000D0A6E100202FE00C21AA4D6A680A4099
:10218000042A0BD06B680B40082B0FD1C0226B6860
:102190005202134080225202934207D12B689B03C4
:1021A000B6D56368002BB3D1012015E06368012B1D
:1021B00014D180232A685B0213432B6000F09AFB42
:1021C00080270600BF022B683B42A1D100F092FBA2
:1021D000801B6428F7D9032005B0F0BD002B16D171
:1021E0002B68914A802713402B602B688F4ABF02CF
:1021F00013402B6000F07EFB06002B683B4200D1B1
:1022000086E700F077FB801B6428F6D9E3E7052B0F
:1022100005D180232A68DB0213432B60C9E72B68B2
:10222000814A13402B602B68804A1340C5E70C227B
:102230007C4D6B6813420BD06B681340082B15D193
:10224000C0226B68520213408022120293420DD1C9
:102250002B689B0702D5E368012BA5D1F8212A68DA
:1022600023698A43DB0013432B6055E7E2680123AF
:10227000002A0FD02A68022713432B6000F03AFB94
:1022800006002B683B42E9D100F034FB801B02289A
:10229000F7D9A0E72A6802279A432A6000F02AFBB0
:1022A00006002B683B4200D136E700F023FB801B81
:1022B0000228F6D98FE7E26901235A4D002A10D08F
:1022C0006A6A022713436B6200F014FB06006B6A14
:1022D0003B4200D024E700F00DFB801B0228F6D91A
:1022E00079E76A6A02279A436A6200F003FB0600F4
:1022F0006B6A3B4200D113E700F0FCFA801B022816
:10230000F6D968E780220021464D5205EB6900911D
:10231000134208D1EB691343EB61EB69134003935C
:10232000039B012300938027414E7F0033683B428B
:1023300006D0A368012B13D12A6A13432B6230E025
:1023400033683B43336000F0D5FA019033683B4279
:10235000EFD100F0CFFA019BC01A6428F6D93AE712
:102360000122002B14D12B6A022793432B622B6A84
:10237000033293432B6200F0BDFA06002B6A3B4206
:1023800016D000F0B7FA2B4B801B9842F6D922E703
:10239000052B16D1296A013B0B432B622B6A1A438A
:1023A0002A6200F0A7FA022706002B6A3B420FD0F0
:1023B000009B012B00D0B7E6EB691F4A1340EB618D
:1023C000B2E62B6A934304222B622B6A9343B5E750
:1023D00000F090FA174B801B9842E6D9FBE600F01C
:1023E00089FA801B022800D8B1E6F4E6053203D151
:1023F0006A6B9A436A63AEE66A6B02271343012253
:102400006B636B6B93436B6300F074FA06006B6B4A
:102410003B4200D1A6E600F06DFA801B0228F6D9F7
:10242000D9E6C04600100240FFFFFEFFFFFFFBFFA2
:102430000070004088130000FFFFFFEF0C21554D96
:102440006A680A408A4209D06B680B40082B0ED19B
:10245000C0226B6852021340934208D16B6B9B03FE
:1024600000D483E6236A012B00D09DE67EE6236A32
:10247000002B13D080236A6B5B0213436B6300F065
:1024800039FA80270600BF026B6B3B4200D06DE635
:1024900000F030FA801B0228F6D99CE66B6B3E4AAE
:1024A000802713406B6300F025FA0600BF026B6BB8
:1024B0003B4200D15AE600F01DFA801B0228F6D9F3
:1024C00089E60C21334D6A680A40082A47D0334A0E
:1024D000022B32D12B68802713402B6000F00AFAC0
:1024E0000600BF042B683B4221D10F22EB6A8026F5
:1024F0009343226BB6041343EB62A16AE36A6A68F2
:102500000B4327490A4013436B6080232A685B040E
:1025100013432B6000F0EEF904002B68334200D027
:1025200028E600F0E7F9001B0228F6D953E600F090
:10253000E1F9801B0228D5D94DE62B68802613408F
:102540002B6000F0D7F90400B6042B68334200D1A9
:1025500010E600F0CFF9001B0228F6D93BE6012B6C
:1025600000D121E6C0216B68A06A4902EA6A1940DD
:10257000814200D018E60F210A40216B8A4200D028
:1025800012E6F02292031340E26A934200D1F1E591
:102590000AE6C04600100240FFFFFEFFFFFFFFFEFD
:1025A000FF7FC2FF0C20144A10B55368184008285A
:1025B00008D00C38431E9841104B40421840104B35
:1025C000C01810BD0F20990C0E4C0140D26A645CFB
:1025D0000D490240895CC022802052021340400213
:1025E000834201D1094802E09342FBD10448FDF740
:1025F0009FFD6043E5E7C0460010024000A69DFD38
:10260000006CDC02743C0008843C000800127A0074
:10261000F7B504000F00002801D10120FEBD012202
:102620003A4D2B6813408B421CD321688B0722D470
:10263000CB072FD401232A681A40BA4257D82368FF
:10264000334D5B075AD4FFF7ADFF6B68314A1B0669
:102650001B0FD35CD840304B1860032000F00AF900
:102660000020DBE72B6893430B432B602B68134060
:102670008B42D2D1D9E7264A4B0704D5E0235068D4
:10268000DB0003435360F02053688343A068034397
:102690005360CDE762681E4E012A03D133689B0365
:1026A00005D4BAE7022A1AD133689B01B5D50321B4
:1026B00073688B431343736000F01CF901900C2383
:1026C00072681A4063689B009A42B3D000F012F916
:1026D000019BC01A114B9842F1D903209EE7032AAF
:1026E00001D1736BDBE733689B07E0D495E72A6879
:1026F0009A432A602A681A42A1D08EE76B68084A7A
:102700001340E26813436B609DE7C046002002401F
:1027100000100240973C00080800002088130000C9
:10272000FFF8FFFF044B054A5B685B055B0FD35C5A
:10273000034A1068D840704700100240A73C0008C8
:1027400008000020F0B50368050085B0DB032AD53A
:1027500080220021414C5205E3690091134208D1C7
:10276000E3691343E361E36913400393039B01238C
:10277000009380273A4E7F0033683B423AD0226A6A
:10278000C02311009B00374E19401A4244D1236ADE
:102790001E406B681E43009B2662012B03D1E36938
:1027A000314A1340E3612A68D30706D503202B4939
:1027B0000B6B8343A86803430B63930606D5102075
:1027C00026490B6B8343E86803430B63930306D5E9
:1027D000802022490B6B8343686903430B6300200D
:1027E000530517D540211D4A136B8B4329690B43B1
:1027F00013630FE033683B43336000F07BF80190D4
:1028000033683B42BBD100F075F8019BC01A6428C5
:10281000F6D9032005B0F0BD6A6813408B42B6D0EC
:102820008023226A206A11005B0203432362236A29
:102830000E483140034023622162D307A7D500F040
:1028400059F807000222236A1342A0D100F052F87F
:10285000074BC01B9842F5D9DBE7C0460010024089
:1028600000700040FFFCFFFFFFFFFFEFFFFFFEFFD8
:102870008813000070B50500FA200D4B8000197810
:10288000FDF756FC0B4B01001868FDF751FC00F0FA
:1028900023F904000120002C09D1032D07D80238A8
:1028A0002200290000F0E2F82000034B1D6070BDFB
:1028B0000000002008000020040000201023064A29
:1028C00010B5116803200B431360FFF7D3FFFDF72A
:1028D000E7FE002010BDC04600200240034A044B22
:1028E00011681B785B1813607047C0468C08002085
:1028F00000000020014B18687047C0468C0800207B
:102900000023F0B587B00A681400DC4001D107B09D
:10291000F0BD012514009D402C4001942A4200D1B5
:1029200091E04A685E0094460322644622400324F4
:10293000B440E4430294541E012C2AD88768029CB8
:102940002740CC68B4403C43846044680127AC43D2
:102950002500644624093C409C402C434460C568E3
:10296000029C25408C68B4402C43C460022A12D1DA
:10297000DC080725A4000419276A03940F241D40CE
:10298000AD00AC40A7430C69AC402743039C2762D1
:1029900001E0032AE3D10468029DB24025402C00E7
:1029A00014430460C0246246A40222424BD0012595
:1029B000264A90279469FF052C43946192699C08EC
:1029C0002A400592059A224AA400A4180F22023533
:1029D0001D40AD00AA40A66896430022B84208D028
:1029E0001C4F0132B84204D01B4F0132B84200D014
:1029F0000332AA4067463243A260184A019C966897
:102A0000019DE4433543FF0201D43500254067466C
:102A10009560D668019D3543BF0201D4350025403D
:102A20006746D5605668019D3543BF0301D4350024
:102A30002540674655601568019E2E43FF0301D46B
:102A400025402E00166001335DE7C04600100240AD
:102A50000000014000040048000800480004014054
:102A6000002A01D0816170478162FCE730B5FF2503
:102A700003242A000440E400A24089012940D243F3
:102A8000A140C3B200280ADBC0240B4B80088000A1
:102A9000C018A40003591A401143015130BD0F2042
:102AA0000340083B05489B089B001B18D86902405F
:102AB0001143D961F2E7C04600E100E000ED00E01B
:102AC000002805DB1F2318401E3B8340014A13608A
:102AD0007047C04600E100E08022431E52040120FE
:102AE00093420DD2C021074A07485360036A090682
:102AF0001B021B0A0B430362002007239060136034
:102B00007047C04610E000E000ED00E00C4A1021E4
:102B1000D06830B503000B40084205D002230948B5
:102B2000C4692343C3610B000420D168014205D06E
:102B30000121044C0343E5692943E161D36030BDC1
:102B40000020024090080020064B00201A6912065F
:102B500006D5054A5A60054A5A6018690006C00F32
:102B60007047C0460020024023016745AB89EFCD86
:102B70008023034A002011690B4313617047C0464C
:102B80000020024070B50400FFF7B4FE01260500E6
:102B9000104BDA68324211D12022D968114200D09C
:102BA000DA60D968102208001040114202D1DB68B7
:102BB0005B0708D5FFF7AAFF012004E0621CE8D0FC
:102BC000002C01D1032070BDFFF794FE401BA042F2
:102BD000DED9F7E7002002400022064BDA61064BFF
:102BE000023219690A431A614022586119690A437D
:102BF0001A617047900800200020024030B5EFF3C2
:102C00001084012282F310880168124D0B682B405A
:102C10000B6084F31088EFF3108482F3108801684E
:102C20008B6893438B6084F31088036E93420AD1C0
:102C3000EFF3108183F31088102402681368A34314
:102C4000136081F310882022031DDA6700230366D6
:102C5000836630BDDFFEFFFF70B504002569A26802
:102C600001682A436569C3692A4308683E4D1A43CF
:102C7000284002430A604A683C48256A0240E068EE
:102C800002434A60A26988682A43394D28400243BA
:102C90008A60384A914215D10321374A126B0A40A3
:102CA0008021013A0902022A52D83448805C8B42C2
:102CB00014D008284AD8FDF727FA0C494749444957
:102CC000494934002E4A914240D180221202934257
:102CD00040D0FFF727FD002840D024E0082835D851
:102CE000FDF712FA38340834053434340900FFF79C
:102CF00059FC31E0234B5800636861685B08C018D9
:102D0000FDF716FA0200204B103A9A421ED80F2304
:102D1000020000079A4393B2400F22681843D06024
:102D20001CE080200002636861685B081818FDF7EA
:102D3000FFF90200144B103A9A4207D82368D86072
:102D40000CE0FFF72FFCC6E70E48ECE7012006E099
:102D50008B42BED1FFF7E6FC031ECCD1002000233E
:102D6000A366E36670BDC046F369FFEFFFCFFFFFC8
:102D7000FFF4FFFF0038014000100240943C0008BF
:102D80000044004000127A00EFFF0000436A30B5B3
:102D90001A0706D50168284C4A682240446B224332
:102DA0004A60DA0706D50168244C4A682240846AE2
:102DB00022434A609A0706D50168214C4A6822409E
:102DC000C46A22434A605A0706D501681D4C4A6806
:102DD0002240046B22434A60DA0606D501681A4C89
:102DE0008A682240846B22438A609A0606D501686D
:102DF000164C8A682240C46B22438A605A0610D55A
:102E00000168134D4A68046C2A4022434A608022BC
:102E10005203944205D14A680E4C2240446C22432E
:102E20004A601B0606D502680B4953680B40816C4B
:102E30000B43536030BDC046FF7FFFFFFFFFFDFF28
:102E4000FFFFFEFFFFFFFBFFFFEFFFFFFFDFFFFFC7
:102E5000FFFFEFFFFFFF9FFFFFFFF7FFF7B5040046
:102E60000D00170000932268D3692B405B1B594269
:102E70004B41BB4201D0002026E0089B0133F3D038
:102E8000FFF738FD009BC01A089B98422DD8002BF5
:102E90002BD0042123681A680A42E4D02A003C316E
:102EA000403A8A43DFD0DA690826110031400191A7
:102EB00032420AD020001E62FFF7A0FEA319DE678F
:102EC0000023012078342370FEBD8022D9691201CD
:102ED0001142C8D01A622000FFF790FE2300202282
:102EE0000833DA67019B783423700320ECE7000095
:102EF0000300F7B5002504000833DD67FFF7FAFC8F
:102F00002600236807001B6878361B071BD5802125
:102F1000264B2A000093890303002000FFF79EFF41
:102F2000A84210D0EFF31081012383F31088802092
:102F3000226813688343136081F310882023E367BA
:102F400035700320FEBD250008CD1B685B0725D525
:102F50008021164B0022009320003B00C903FFF79D
:102F60007DFF00281AD0EFF31080012282F3108831
:102F700021680F4F0B683B400B6080F31088EFF324
:102F8000108082F3108821688B6893438B6080F3F4
:102F900010882023EB6700233370D2E70020202322
:102FA000E367EB67206660663070CBE7FFFFFF01E9
:102FB000DFFEFFFF10B5041E01D1012010BDC36F5D
:102FC000002B04D1020078321370FDF781FB24231B
:102FD00001212268E36713688B431360636A002B47
:102FE00002D02000FFF7D2FE2000FFF735FE0128B7
:102FF000E3D0236807495A6820000A402A215A6012
:103000009A688A439A60012219680A431A60FFF796
:103010006FFFD3E7FFB7FFFF7047022310B500280B
:1030200013D0AD239B00C458002C01D00024C45001
:10303000002902D0AC239B00C150A72301219B0093
:10304000C1540270FDF7E6FC0023180010BD030018
:103050000220002903D0AD22002092009950704731
:1030600010B5FDF717FD002010BDAD239B00C35820
:1030700010B5002B01D1022010BD1B689847002815
:10308000FAD0F8E7AD2310B59B00C3585B689847AA
:10309000002010BDAA239B0070B5C51804002800AD
:1030A00000F020FBA52301229B00E250114BE25AC5
:1030B000163BE2501033E15C1F230B40012B09D07B
:1030C000022B0CD0002B0FD12900200000F01EF99C
:1030D000002070BD2900200000F046FAF8E7290022
:1030E000200000F069FAF3E77F2320009943FDF701
:1030F000EFFCEDE7AE02000070B50D00040011001A
:10310000002D2ED1A5239B00C258032A22D10200F4
:103110005532FF32D368106983420AD91B1AD36033
:1031200082B2984200D99AB2200000F03DFB2800FC
:1031300070BDAD239B00E3581B69002B06D0A7226E
:103140009200A25C032A01D120009847200000F0E1
:1031500033FBECE7052AEAD12900C550FDF7B8FC9E
:10316000E5E7AD239B00C3589B69002B08D0A7223D
:103170009200825C032A03D1290098470025D6E7F4
:103180000225D4E7F8B50D0004001100002D4DD143
:10319000A5239B00C358022B41D1036A466AB34260
:1031A00013D99B1B03629AB200F0E6FA2B002A00A7
:1031B00029002000FDF7C3FCA8239B00E25C012A44
:1031C00001D10022E2542800F8BDC769310038005F
:1031D000FDF734F800290DD1BE420BD8A626B60063
:1031E000A3599F4206D22A002900200000F0C4FA09
:1031F000A551DBE7AD239B00E358DB68002B06D02D
:10320000A7229200A25C032A01D1200098478021C6
:103210002000FDF75DFC200000F0DAFACCE7042284
:103220009343C9D18021FDF753FCC5E7AD239B0033
:10323000C3585B69002B08D0A7229200825C032A46
:1032400003D1290098470025BDE70225BBE70022EE
:1032500070B5040011004023FDF725FC2300012573
:103260004026FC338021DD659E660022330020006D
:10327000FDF719FCA72300219B00A5616662E554B8
:10328000083BE15010336160E1501433E3588B4246
:1032900005D0AD239B00E35820005B6898470020D1
:1032A00070BD017400207047A7239B00C15C034AD6
:1032B00081540422C25400207047C0469D02000081
:1032C000A7239B00C25C042A02D1024A825CC2543A
:1032D000002070479D020000A72310B59B00C35C2F
:1032E000032B06D1AD239B00C358DB69002B00D014
:1032F0009847002010BD10B504008021FDF7E8FBC1
:1033000000212000FDF7E4FB10BD000060220B78D7
:1033100073B513400D0019009218203904001142B2
:1033200012D0002B00D08DE06878092800D989E000
:10333000FCF7F4FEE70005018800FD0088007A0034
:1033400012008800D1009B00AD239B00C3582900C8
:103350009B689847002076BD00236A46D3806B881F
:10336000180A013806286DD8FCF7CEFE0417246C25
:103370006C3E4600AC239B00E358207C1B686A46E9
:10338000911D98476B46D988002948D0EA88002AC1
:103390003AD1200000F010FADCE7AD23227C9B003C
:1033A000E358002A04D19B6A6A46901D9847E9E7D2
:1033B000DB6AF9E7D8B2052844D8AC239B00E35870
:1033C000FCF7A2FE03080A0C0E105B68002B39D034
:1033D000207CD4E79B68F9E7DB68F7E71B69F5E732
:1033E0005B69F3E79B69F1E7237C002B2AD1AD23CE
:1033F0009B00E3585B6BD7E7237C002B22D1AD23E6
:103400009B00E3581B6BCFE70B1C914200D9131CA8
:1034100069469AB2CB800100200000F09FF9EB884A
:10342000002B00D096E7B4E7AB88002B0AD1EB88DD
:10343000002B07D16E887F2E04D8A725AD00635DD1
:10344000032B03D12000FFF756FF83E7444BF1B273
:10345000E1542000FDF761FB200000F0ADF90223EC
:10346000002E00D10123635574E7A9783D4D2970E2
:103470000129E7D8A7239B00E25C022A09D0032A8E
:1034800015D02000FFF737FF20002978FFF7FAFD5D
:1034900060E7002900D17CE7012103226160E2544A
:1034A0002000FFF7E2FD022800D072E7CAE70029FA
:1034B00006D102222000E2546160FFF7E3FD68E7D5
:1034C0006168012900D164E7C9B22000FFF7DAFD85
:1034D00029786160E4E7EA88012AB3D1A7239B0039
:1034E000E35C022B06D8002BACD000232100A360A4
:1034F000083102E0211D032BA4D1200000F02EF999
:1035000028E7A7239B00E35C013B022B9AD8EB88BA
:10351000022B97D1013BE360A9239B00E358002BCA
:1035200001D00323E360210002220C31E5E76B8820
:10353000012B00D00EE7A9229200A35029E7A72370
:103540009B00E35C013B022B00D97BE76B88012BDE
:1035500000D0FFE6A92300229B00E25019E7C046F5
:103560009E020000B008002060230A7870B5134066
:1035700004000D00402B01D0530619D4A7239B0053
:10358000E35C013B022B13D82B79012B10D8AD2320
:103590009B00E35829009B6820009847EB88002B8C
:1035A00004D1002802D1200000F006F9002070BDEF
:1035B0002000FFF7A0FEF9E70A780B0060210A401F
:1035C00070B50400100049182038084229D0002A9C
:1035D00037D198885A78C1B2012A45D0032A29D018
:1035E000002A2ED1A7239B00E35C022B56D0032B8D
:1035F00027D10F2214230A405A43A21800065DD592
:103600009269002A1DD07F250D4001355D437F233F
:103610000A0065191A4019425AD12A60022229006B
:1036200048E0AD229200A25819002000926890470D
:10363000002070BDA7229200A25C022A24D0032A97
:1036400003D02000FFF757FEF2E75A88002A07D17F
:103650004A0605D0DB88002B02D12000FDF738FA9E
:10366000200000F0A9F8E3E7A7229200A25C022A5A
:103670000AD0032AE5D15B88002BD9D14B06EFD0C5
:103680002000FDF72EFAEBE74B06DAD02000FDF71D
:103690001FFA80212000FDF71BFAC9E74B06D0D1A5
:1036A00021005531FF31030601D54139FF3900238F
:1036B00002220B60200000F051F8B9E7FC32D26D15
:1036C000002ABED07F250D405D435535FF359EE76E
:1036D0002000FDF70FFA002802D001232B609DE7A0
:1036E00028609BE70B7803704B784370CA788B781F
:1036F00012029B1843804A790B7912029B1883802F
:10370000CA798B7912029B18C380704710B50400E8
:103710008021FDF7DDF900212000FDF7D9F910BD6A
:1037200070B50025461EA8420FD02B000135745DF0
:10373000002CFAD1DBB201335B0013800B70032342
:103740004B70013B0578002D00D170BD5A1CCD5443
:10375000D2B202330130DBB28C54F3E71300A5225E
:1037600010B50224920084500A00C3610021036254
:10377000FDF7DCF9002010BD10B513000A00002190
:10378000FDF7D4F9002010BD1300A52210B50324C5
:10379000920084500200FC32136653660A00002136
:1037A000FDF7CDF9002010BD10B513000A0000216F
:1037B000FDF7C5F9002010BDA52304229B0010B51C
:1037C000C25000231A001900FDF7B0F9002010BD07
:1037D000A52305229B0010B5C25000231A00190032
:1037E000FDF7ADF9002010BDAF239B00C35810B505
:1037F000002B0ED0AE22920081580C00403420786D
:10380000FF2806D00A0041329B6812789847FF23B0
:103810002370002010BD0000432303800048704740
:10382000E83C000843230380004870472C3D000813
:1038300043230380004870477C3D00080A2303802F
:1038400000487047703D000870B5AE260400B60011
:103850008559FDF77DF9A359E8640220002B08D0B3
:10386000AF2329009B00E358686CDB684C31984714
:10387000002070BDAE23F7B59B00C35805000F00B4
:1038800002200193002B18D014264E43AE19F06984
:10389000002813D02822B0234A439B00EB589B18E2
:1038A000196AFCF7CBFC0C1E08D10B000A00F16171
:1038B00028003900FDF73AF92000FEBD0020019BE9
:1038C0005865FAE7AE23F7B59B00C7586B466A46C2
:1038D0000E00591D002305000B70D3803378901D16
:1038E0001C0060221440134229D0202C45D1F488BA
:1038F0007078002C1BD05BB2002B0EDAAF239B003C
:10390000EB58220039009B68984739002800F2885C
:10391000FFF724FF00242000FEBD3B004033187059
:103920002200390028005C70FFF72EFFF2E7AF237A
:103930009B00EB58220031009B689847EBE77378B7
:103940000A2B0ED00B2B13D0002B16D1A7239B00D4
:10395000EB5C032B11D1022201002800FFF7FEFED1
:10396000D9E7A7239B00EB5C032B06D10122F4E7E8
:10397000A7239B00EB5C032BCDD031002800FFF781
:10398000C5FE0224C7E770B5040000258121FDF7BC
:1039900096F801212000E562FDF791F82300AE269C
:1039A000FC331D6782212000B600FDF788F8A3597B
:1039B0002564AB4208D0AF239B00E3585B6898476F
:1039C000A059FDF7D1F8A551002070BDF8B506004B
:1039D000037C0400FC36002B34D1802302229B00A0
:1039E0008121FDF760F801258023E5629B00012716
:1039F000290002222000FDF756F80823356703222C
:103A000082212000FDF74FF85C202764FDF7A8F81D
:103A1000AE239B0005003E00E050002810D0043388
:103A2000E3581B68984700236B65AB65267C9E4274
:103A300011D18023390020006A6C9B00FDF77FF8CC
:103A40003000F8BD0125402302228121FDF72BF82B
:103A50004023E562CBE74023390020006A6CFDF784
:103A60006EF80026ECE703000220002903D0AF2205
:103A70000020920099507047AE239B00C35800204D
:103A800099641A657047AE239B00C358002059649F
:103A90007047AE239B00C25810B50223002A0CD0F9
:103AA000546D013B002C08D15365136D81210363D4
:103AB000926C9BB2FDF73AF82300180010BDAE23BC
:103AC0009B00C35810B50224002B08D0047C5A6C0C
:103AD000002C06D1802301219B00FDF730F8200047
:103AE00010BD40230121FDF72AF80024F7E700006C
:103AF00013488546FFF790FA12480168090E124AEA
:103B0000914205D1114812490160124812490160E1
:103B100012481349134A002302E0D458C450043316
:103B2000C4188C42F9D3104A104C002301E01360F2
:103B30000432A242FBD300F01DF8FCF7EDFBFEE7D8
:103B400000180020040000001F00000018100240B0
:103B50000100000000000140000000000000002003
:103B60000C000020C83D000810000020B408002010
:103B7000FEE7000070B500260C4D0D4C641BA41030
:103B8000A64209D1002600F02BF80A4D0A4C641B0E
:103B9000A410A64205D170BDB300EB58984701367A
:103BA000EEE7B300EB5898470136F2E7C03D000856
:103BB000C03D0008C03D0008C43D0008002310B50A
:103BC0009A4200D110BDCC5CC4540133F8E7030025
:103BD0008218934200D1704719700133F9E7000051
:103BE000F8B5C046F8BC08BC9E467047F8B5C0465C
:083BF000F8BC08BC9E467047BA
:103BF80053616D73756E67204E415341204C696E59
:103C08006B00373070347A0043444320436F6E664C
:103C180069670043444320496E7465726661636551
:103C280000000000C5070008D10700086D0800085B
:103C3800510800080108000889080008A5080008BC
:103C480012010002020200408304405700020102F0
:103C58000301000004030904C5080008C10800089E
:103C6800D9080008650200080002010202030405E1
:103C7800060708090A0B0C0D0E0F101001020304A9
:103C880005060708090A0B0C0D0E0F1004080200A0
:103C980000000000000000010203040607080900F4
:103CA8000000000102030400CD390008873900082C
:103CB800C538000800000000E9370008753800081A
:103CC8004938000800000000000000000000000063
:103CD8002538000819380008313800083D38000830
:103CE80009024300020100C0320904000001020277
:103CF800010005240010010524010001042402022A
:103D080005240600010705820308001009040100C4
:103D1800020A0000000705010240000007058102B1
:103D28004000000009024300020100C032090400FB
:103D38000001020201000524001001052401000110
:103D48000424020205240600010705820308001066
:103D580009040100020A0000000705010200020030
:103D680007058102000200000A0600020000004068
:103D78000100000009074300020104C032090400E1
:103D880000010202010005240010010524010001C0
:103D98000424020205240600010705820308001016
:103DA80009040100020A00000007050102400000A2
:083DB800070581024000000034
:043DC000E90000080E
:043DC400C100000832
:0C3DC800010000000400000000127A005E
:0400000508003AF1C4
:00000001FF
